{
  "_format": "hh-sol-artifact-1",
  "contractName": "SimpleBank",
  "sourceName": "contracts/SimpleBank.sol",
  "abi": [
    {
      "inputs": [],
      "stateMutability": "nonpayable",
      "type": "constructor"
    },
    {
      "inputs": [
        {
          "internalType": "uint256",
          "name": "requested",
          "type": "uint256"
        },
        {
          "internalType": "uint256",
          "name": "balance",
          "type": "uint256"
        }
      ],
      "name": "InSufficientBalance",
      "type": "error"
    },
    {
      "anonymous": false,
      "inputs": [
        {
          "indexed": false,
          "internalType": "address",
          "name": "from",
          "type": "address"
        },
        {
          "indexed": false,
          "internalType": "address",
          "name": "to",
          "type": "address"
        },
        {
          "indexed": false,
          "internalType": "uint256",
          "name": "amount",
          "type": "uint256"
        }
      ],
      "name": "Sent",
      "type": "event"
    },
    {
      "inputs": [
        {
          "internalType": "address",
          "name": "",
          "type": "address"
        }
      ],
      "name": "balances",
      "outputs": [
        {
          "internalType": "uint256",
          "name": "",
          "type": "uint256"
        }
      ],
      "stateMutability": "view",
      "type": "function"
    },
    {
      "inputs": [
        {
          "internalType": "address",
          "name": "receiver",
          "type": "address"
        },
        {
          "internalType": "uint256",
          "name": "amount",
          "type": "uint256"
        }
      ],
      "name": "mint",
      "outputs": [],
      "stateMutability": "nonpayable",
      "type": "function"
    },
    {
      "inputs": [],
      "name": "minter",
      "outputs": [
        {
          "internalType": "address",
          "name": "",
          "type": "address"
        }
      ],
      "stateMutability": "view",
      "type": "function"
    },
    {
      "inputs": [
        {
          "internalType": "address",
          "name": "to",
          "type": "address"
        },
        {
          "internalType": "uint256",
          "name": "amount",
          "type": "uint256"
        }
      ],
      "name": "transfer",
      "outputs": [],
      "stateMutability": "nonpayable",
      "type": "function"
    }
  ],
  "bytecode": "0x608060405234801561001057600080fd5b50336000806101000a81548173ffffffffffffffffffffffffffffffffffffffff021916908373ffffffffffffffffffffffffffffffffffffffff16021790555061061e806100606000396000f3fe608060405234801561001057600080fd5b506004361061004c5760003560e01c8063075461721461005157806327e235e31461006f57806340c10f191461009f578063a9059cbb146100bb575b600080fd5b6100596100d7565b60405161006691906103b6565b60405180910390f35b61008960048036038101906100849190610402565b6100fb565b6040516100969190610448565b60405180910390f35b6100b960048036038101906100b4919061048f565b610113565b005b6100d560048036038101906100d0919061048f565b6101c5565b005b60008054906101000a900473ffffffffffffffffffffffffffffffffffffffff1681565b60016020528060005260406000206000915090505481565b60008054906101000a900473ffffffffffffffffffffffffffffffffffffffff1673ffffffffffffffffffffffffffffffffffffffff163373ffffffffffffffffffffffffffffffffffffffff161461016b57600080fd5b80600160008473ffffffffffffffffffffffffffffffffffffffff1673ffffffffffffffffffffffffffffffffffffffff16815260200190815260200160002060008282546101ba91906104fe565b925050819055505050565b80600160003373ffffffffffffffffffffffffffffffffffffffff1673ffffffffffffffffffffffffffffffffffffffff16815260200190815260200160002054101561028a5780600160003373ffffffffffffffffffffffffffffffffffffffff1673ffffffffffffffffffffffffffffffffffffffff168152602001908152602001600020546040517f1aba9cd5000000000000000000000000000000000000000000000000000000008152600401610281929190610554565b60405180910390fd5b80600160003373ffffffffffffffffffffffffffffffffffffffff1673ffffffffffffffffffffffffffffffffffffffff16815260200190815260200160002060008282546102d9919061057d565b9250508190555080600160008473ffffffffffffffffffffffffffffffffffffffff1673ffffffffffffffffffffffffffffffffffffffff168152602001908152602001600020600082825461032f91906104fe565b925050819055507f3990db2d31862302a685e8086b5755072a6e2b5b780af1ee81ece35ee3cd3345338383604051610369939291906105b1565b60405180910390a15050565b600073ffffffffffffffffffffffffffffffffffffffff82169050919050565b60006103a082610375565b9050919050565b6103b081610395565b82525050565b60006020820190506103cb60008301846103a7565b92915050565b600080fd5b6103df81610395565b81146103ea57600080fd5b50565b6000813590506103fc816103d6565b92915050565b600060208284031215610418576104176103d1565b5b6000610426848285016103ed565b91505092915050565b6000819050919050565b6104428161042f565b82525050565b600060208201905061045d6000830184610439565b92915050565b61046c8161042f565b811461047757600080fd5b50565b60008135905061048981610463565b92915050565b600080604083850312156104a6576104a56103d1565b5b60006104b4858286016103ed565b92505060206104c58582860161047a565b9150509250929050565b7f4e487b7100000000000000000000000000000000000000000000000000000000600052601160045260246000fd5b60006105098261042f565b91506105148361042f565b9250827fffffffffffffffffffffffffffffffffffffffffffffffffffffffffffffffff03821115610549576105486104cf565b5b828201905092915050565b60006040820190506105696000830185610439565b6105766020830184610439565b9392505050565b60006105888261042f565b91506105938361042f565b9250828210156105a6576105a56104cf565b5b828203905092915050565b60006060820190506105c660008301866103a7565b6105d360208301856103a7565b6105e06040830184610439565b94935050505056fea264697066735822122084e289a8ec23a171c3efc705dc60d02b292408148c1d974f677fe3213299420964736f6c634300080a0033",
  "linkReferences": {},
  "deployedLinkReferences": {}
}