{
  "contracts/ValueType.sol": {
    "BooleanOperators": {
      "abi": [
        {
          "inputs": [
            {
              "internalType": "bool",
              "name": "op1",
              "type": "bool"
            },
            {
              "internalType": "bool",
              "name": "op2",
              "type": "bool"
            }
          ],
          "name": "isEqualOperation",
          "outputs": [
            {
              "internalType": "bool",
              "name": "",
              "type": "bool"
            }
          ],
          "stateMutability": "pure",
          "type": "function"
        },
        {
          "inputs": [
            {
              "internalType": "bool",
              "name": "op1",
              "type": "bool"
            },
            {
              "internalType": "bool",
              "name": "op2",
              "type": "bool"
            }
          ],
          "name": "isNotEqualOperation",
          "outputs": [
            {
              "internalType": "bool",
              "name": "",
              "type": "bool"
            }
          ],
          "stateMutability": "pure",
          "type": "function"
        },
        {
          "inputs": [
            {
              "internalType": "bool",
              "name": "op1",
              "type": "bool"
            },
            {
              "internalType": "bool",
              "name": "op2",
              "type": "bool"
            }
          ],
          "name": "logicalAndOperation",
          "outputs": [
            {
              "internalType": "bool",
              "name": "",
              "type": "bool"
            }
          ],
          "stateMutability": "pure",
          "type": "function"
        },
        {
          "inputs": [
            {
              "internalType": "bool",
              "name": "op1",
              "type": "bool"
            },
            {
              "internalType": "bool",
              "name": "op2",
              "type": "bool"
            }
          ],
          "name": "logicalOrOperation",
          "outputs": [
            {
              "internalType": "bool",
              "name": "",
              "type": "bool"
            }
          ],
          "stateMutability": "pure",
          "type": "function"
        },
        {
          "inputs": [
            {
              "internalType": "bool",
              "name": "op1",
              "type": "bool"
            }
          ],
          "name": "notOperation",
          "outputs": [
            {
              "internalType": "bool",
              "name": "",
              "type": "bool"
            }
          ],
          "stateMutability": "pure",
          "type": "function"
        }
      ],
      "evm": {
        "bytecode": {
          "linkReferences": {},
          "object": "608060405234801561001057600080fd5b506102ab806100206000396000f3fe608060405234801561001057600080fd5b50600436106100575760003560e01c80630f0468921461005c578063531d73221461008c578063a636da8a146100bc578063b6edc240146100ec578063b99fcb331461011c575b600080fd5b610076600480360381019061007191906101de565b61014c565b604051610083919061022d565b60405180910390f35b6100a660048036038101906100a191906101de565b61015f565b6040516100b3919061022d565b60405180910390f35b6100d660048036038101906100d19190610248565b610170565b6040516100e3919061022d565b60405180910390f35b610106600480360381019061010191906101de565b61017b565b604051610113919061022d565b60405180910390f35b610136600480360381019061013191906101de565b61018d565b604051610143919061022d565b60405180910390f35b600082806101575750815b905092915050565b600081151583151514905092915050565b600081159050919050565b60008115158315151415905092915050565b60008280156101995750815b905092915050565b600080fd5b60008115159050919050565b6101bb816101a6565b81146101c657600080fd5b50565b6000813590506101d8816101b2565b92915050565b600080604083850312156101f5576101f46101a1565b5b6000610203858286016101c9565b9250506020610214858286016101c9565b9150509250929050565b610227816101a6565b82525050565b6000602082019050610242600083018461021e565b92915050565b60006020828403121561025e5761025d6101a1565b5b600061026c848285016101c9565b9150509291505056fea264697066735822122057c2a1fb38ee932c0aff2161dac2b29b6335b51c3141352fd9a0b0d90129f34264736f6c634300080a0033",
          "opcodes": "PUSH1 0x80 PUSH1 0x40 MSTORE CALLVALUE DUP1 ISZERO PUSH2 0x10 JUMPI PUSH1 0x0 DUP1 REVERT JUMPDEST POP PUSH2 0x2AB DUP1 PUSH2 0x20 PUSH1 0x0 CODECOPY PUSH1 0x0 RETURN INVALID PUSH1 0x80 PUSH1 0x40 MSTORE CALLVALUE DUP1 ISZERO PUSH2 0x10 JUMPI PUSH1 0x0 DUP1 REVERT JUMPDEST POP PUSH1 0x4 CALLDATASIZE LT PUSH2 0x57 JUMPI PUSH1 0x0 CALLDATALOAD PUSH1 0xE0 SHR DUP1 PUSH4 0xF046892 EQ PUSH2 0x5C JUMPI DUP1 PUSH4 0x531D7322 EQ PUSH2 0x8C JUMPI DUP1 PUSH4 0xA636DA8A EQ PUSH2 0xBC JUMPI DUP1 PUSH4 0xB6EDC240 EQ PUSH2 0xEC JUMPI DUP1 PUSH4 0xB99FCB33 EQ PUSH2 0x11C JUMPI JUMPDEST PUSH1 0x0 DUP1 REVERT JUMPDEST PUSH2 0x76 PUSH1 0x4 DUP1 CALLDATASIZE SUB DUP2 ADD SWAP1 PUSH2 0x71 SWAP2 SWAP1 PUSH2 0x1DE JUMP JUMPDEST PUSH2 0x14C JUMP JUMPDEST PUSH1 0x40 MLOAD PUSH2 0x83 SWAP2 SWAP1 PUSH2 0x22D JUMP JUMPDEST PUSH1 0x40 MLOAD DUP1 SWAP2 SUB SWAP1 RETURN JUMPDEST PUSH2 0xA6 PUSH1 0x4 DUP1 CALLDATASIZE SUB DUP2 ADD SWAP1 PUSH2 0xA1 SWAP2 SWAP1 PUSH2 0x1DE JUMP JUMPDEST PUSH2 0x15F JUMP JUMPDEST PUSH1 0x40 MLOAD PUSH2 0xB3 SWAP2 SWAP1 PUSH2 0x22D JUMP JUMPDEST PUSH1 0x40 MLOAD DUP1 SWAP2 SUB SWAP1 RETURN JUMPDEST PUSH2 0xD6 PUSH1 0x4 DUP1 CALLDATASIZE SUB DUP2 ADD SWAP1 PUSH2 0xD1 SWAP2 SWAP1 PUSH2 0x248 JUMP JUMPDEST PUSH2 0x170 JUMP JUMPDEST PUSH1 0x40 MLOAD PUSH2 0xE3 SWAP2 SWAP1 PUSH2 0x22D JUMP JUMPDEST PUSH1 0x40 MLOAD DUP1 SWAP2 SUB SWAP1 RETURN JUMPDEST PUSH2 0x106 PUSH1 0x4 DUP1 CALLDATASIZE SUB DUP2 ADD SWAP1 PUSH2 0x101 SWAP2 SWAP1 PUSH2 0x1DE JUMP JUMPDEST PUSH2 0x17B JUMP JUMPDEST PUSH1 0x40 MLOAD PUSH2 0x113 SWAP2 SWAP1 PUSH2 0x22D JUMP JUMPDEST PUSH1 0x40 MLOAD DUP1 SWAP2 SUB SWAP1 RETURN JUMPDEST PUSH2 0x136 PUSH1 0x4 DUP1 CALLDATASIZE SUB DUP2 ADD SWAP1 PUSH2 0x131 SWAP2 SWAP1 PUSH2 0x1DE JUMP JUMPDEST PUSH2 0x18D JUMP JUMPDEST PUSH1 0x40 MLOAD PUSH2 0x143 SWAP2 SWAP1 PUSH2 0x22D JUMP JUMPDEST PUSH1 0x40 MLOAD DUP1 SWAP2 SUB SWAP1 RETURN JUMPDEST PUSH1 0x0 DUP3 DUP1 PUSH2 0x157 JUMPI POP DUP2 JUMPDEST SWAP1 POP SWAP3 SWAP2 POP POP JUMP JUMPDEST PUSH1 0x0 DUP2 ISZERO ISZERO DUP4 ISZERO ISZERO EQ SWAP1 POP SWAP3 SWAP2 POP POP JUMP JUMPDEST PUSH1 0x0 DUP2 ISZERO SWAP1 POP SWAP2 SWAP1 POP JUMP JUMPDEST PUSH1 0x0 DUP2 ISZERO ISZERO DUP4 ISZERO ISZERO EQ ISZERO SWAP1 POP SWAP3 SWAP2 POP POP JUMP JUMPDEST PUSH1 0x0 DUP3 DUP1 ISZERO PUSH2 0x199 JUMPI POP DUP2 JUMPDEST SWAP1 POP SWAP3 SWAP2 POP POP JUMP JUMPDEST PUSH1 0x0 DUP1 REVERT JUMPDEST PUSH1 0x0 DUP2 ISZERO ISZERO SWAP1 POP SWAP2 SWAP1 POP JUMP JUMPDEST PUSH2 0x1BB DUP2 PUSH2 0x1A6 JUMP JUMPDEST DUP2 EQ PUSH2 0x1C6 JUMPI PUSH1 0x0 DUP1 REVERT JUMPDEST POP JUMP JUMPDEST PUSH1 0x0 DUP2 CALLDATALOAD SWAP1 POP PUSH2 0x1D8 DUP2 PUSH2 0x1B2 JUMP JUMPDEST SWAP3 SWAP2 POP POP JUMP JUMPDEST PUSH1 0x0 DUP1 PUSH1 0x40 DUP4 DUP6 SUB SLT ISZERO PUSH2 0x1F5 JUMPI PUSH2 0x1F4 PUSH2 0x1A1 JUMP JUMPDEST JUMPDEST PUSH1 0x0 PUSH2 0x203 DUP6 DUP3 DUP7 ADD PUSH2 0x1C9 JUMP JUMPDEST SWAP3 POP POP PUSH1 0x20 PUSH2 0x214 DUP6 DUP3 DUP7 ADD PUSH2 0x1C9 JUMP JUMPDEST SWAP2 POP POP SWAP3 POP SWAP3 SWAP1 POP JUMP JUMPDEST PUSH2 0x227 DUP2 PUSH2 0x1A6 JUMP JUMPDEST DUP3 MSTORE POP POP JUMP JUMPDEST PUSH1 0x0 PUSH1 0x20 DUP3 ADD SWAP1 POP PUSH2 0x242 PUSH1 0x0 DUP4 ADD DUP5 PUSH2 0x21E JUMP JUMPDEST SWAP3 SWAP2 POP POP JUMP JUMPDEST PUSH1 0x0 PUSH1 0x20 DUP3 DUP5 SUB SLT ISZERO PUSH2 0x25E JUMPI PUSH2 0x25D PUSH2 0x1A1 JUMP JUMPDEST JUMPDEST PUSH1 0x0 PUSH2 0x26C DUP5 DUP3 DUP6 ADD PUSH2 0x1C9 JUMP JUMPDEST SWAP2 POP POP SWAP3 SWAP2 POP POP JUMP INVALID LOG2 PUSH5 0x6970667358 0x22 SLT KECCAK256 JUMPI 0xC2 LOG1 0xFB CODESIZE 0xEE SWAP4 0x2C EXP SELFDESTRUCT 0x21 PUSH2 0xDAC2 0xB2 SWAP12 PUSH4 0x35B51C31 COINBASE CALLDATALOAD 0x2F 0xD9 LOG0 0xB0 0xD9 ADD 0x29 RETURN TIMESTAMP PUSH5 0x736F6C6343 STOP ADDMOD EXP STOP CALLER "
        },
        "methodIdentifiers": {
          "isEqualOperation(bool,bool)": "531d7322",
          "isNotEqualOperation(bool,bool)": "b6edc240",
          "logicalAndOperation(bool,bool)": "b99fcb33",
          "logicalOrOperation(bool,bool)": "0f046892",
          "notOperation(bool)": "a636da8a"
        }
      }
    }
  }
}