{
  "_format": "hh-sol-artifact-1",
  "contractName": "StateVisibility",
  "sourceName": "contracts/ComplexType.sol",
  "abi": [
    {
      "inputs": [
        {
          "internalType": "uint256",
          "name": "",
          "type": "uint256"
        }
      ],
      "name": "friends",
      "outputs": [
        {
          "internalType": "string",
          "name": "",
          "type": "string"
        }
      ],
      "stateMutability": "view",
      "type": "function"
    },
    {
      "inputs": [
        {
          "internalType": "uint256",
          "name": "",
          "type": "uint256"
        },
        {
          "internalType": "uint256",
          "name": "",
          "type": "uint256"
        }
      ],
      "name": "myweekTodos",
      "outputs": [
        {
          "internalType": "string",
          "name": "",
          "type": "string"
        }
      ],
      "stateMutability": "view",
      "type": "function"
    }
  ],
  "bytecode": "0x608060405234801561001057600080fd5b50610406806100206000396000f3fe608060405234801561001057600080fd5b50600436106100365760003560e01c80631059cdd91461003b578063ce1468281461006b575b600080fd5b61005560048036038101906100509190610247565b61009b565b6040516100629190610320565b60405180910390f35b61008560048036038101906100809190610342565b610160565b6040516100929190610320565b60405180910390f35b600082815481106100ab57600080fd5b9060005260206000200181815481106100c357600080fd5b906000526020600020016000915091505080546100df9061039e565b80601f016020809104026020016040519081016040528092919081815260200182805461010b9061039e565b80156101585780601f1061012d57610100808354040283529160200191610158565b820191906000526020600020905b81548152906001019060200180831161013b57829003601f168201915b505050505081565b6001818154811061017057600080fd5b90600052602060002001600091509050805461018b9061039e565b80601f01602080910402602001604051908101604052809291908181526020018280546101b79061039e565b80156102045780601f106101d957610100808354040283529160200191610204565b820191906000526020600020905b8154815290600101906020018083116101e757829003601f168201915b505050505081565b600080fd5b6000819050919050565b61022481610211565b811461022f57600080fd5b50565b6000813590506102418161021b565b92915050565b6000806040838503121561025e5761025d61020c565b5b600061026c85828601610232565b925050602061027d85828601610232565b9150509250929050565b600081519050919050565b600082825260208201905092915050565b60005b838110156102c15780820151818401526020810190506102a6565b838111156102d0576000848401525b50505050565b6000601f19601f8301169050919050565b60006102f282610287565b6102fc8185610292565b935061030c8185602086016102a3565b610315816102d6565b840191505092915050565b6000602082019050818103600083015261033a81846102e7565b905092915050565b6000602082840312156103585761035761020c565b5b600061036684828501610232565b91505092915050565b7f4e487b7100000000000000000000000000000000000000000000000000000000600052602260045260246000fd5b600060028204905060018216806103b657607f821691505b602082108114156103ca576103c961036f565b5b5091905056fea2646970667358221220c0c45cee45b23defbb8c2d9ec616f7d39909bdb186aa768bf6823a201cd2042f64736f6c634300080a0033",
  "linkReferences": {},
  "deployedLinkReferences": {}
}