{
  "_format": "hh-sol-artifact-1",
  "contractName": "Election",
  "sourceName": "contracts/Election.sol",
  "abi": [
    {
      "inputs": [],
      "stateMutability": "nonpayable",
      "type": "constructor"
    },
    {
      "anonymous": false,
      "inputs": [
        {
          "indexed": true,
          "internalType": "uint8",
          "name": "_candidateId",
          "type": "uint8"
        }
      ],
      "name": "votedEvent",
      "type": "event"
    },
    {
      "inputs": [
        {
          "internalType": "string",
          "name": "_name",
          "type": "string"
        }
      ],
      "name": "addCandidate",
      "outputs": [],
      "stateMutability": "nonpayable",
      "type": "function"
    },
    {
      "inputs": [
        {
          "internalType": "uint8",
          "name": "",
          "type": "uint8"
        }
      ],
      "name": "candidates",
      "outputs": [
        {
          "internalType": "uint8",
          "name": "id",
          "type": "uint8"
        },
        {
          "internalType": "string",
          "name": "name",
          "type": "string"
        },
        {
          "internalType": "uint256",
          "name": "voteCount",
          "type": "uint256"
        }
      ],
      "stateMutability": "view",
      "type": "function"
    },
    {
      "inputs": [],
      "name": "candidatesCount",
      "outputs": [
        {
          "internalType": "uint8",
          "name": "",
          "type": "uint8"
        }
      ],
      "stateMutability": "view",
      "type": "function"
    },
    {
      "inputs": [
        {
          "internalType": "uint8",
          "name": "_candidateId",
          "type": "uint8"
        }
      ],
      "name": "vote",
      "outputs": [],
      "stateMutability": "nonpayable",
      "type": "function"
    },
    {
      "inputs": [
        {
          "internalType": "address",
          "name": "",
          "type": "address"
        }
      ],
      "name": "voters",
      "outputs": [
        {
          "internalType": "bool",
          "name": "",
          "type": "bool"
        }
      ],
      "stateMutability": "view",
      "type": "function"
    }
  ],
  "bytecode": "0x608060405234801561001057600080fd5b50336000806101000a81548173ffffffffffffffffffffffffffffffffffffffff021916908373ffffffffffffffffffffffffffffffffffffffff1602179055506000600360006101000a81548160ff021916908360ff160217905550610b678061007c6000396000f3fe608060405234801561001057600080fd5b50600436106100575760003560e01c80632d35a8a21461005c578063462e91ec1461007a5780636d6277f414610096578063a3ec138d146100c8578063b3f98adc146100f8575b600080fd5b610064610114565b604051610071919061065d565b60405180910390f35b610094600480360381019061008f91906107d2565b610127565b005b6100b060048036038101906100ab9190610847565b610262565b6040516100bf93929190610915565b60405180910390f35b6100e260048036038101906100dd91906109b1565b610321565b6040516100ef91906109f9565b60405180910390f35b610112600480360381019061010d9190610847565b610341565b005b600360009054906101000a900460ff1681565b60008054906101000a900473ffffffffffffffffffffffffffffffffffffffff1673ffffffffffffffffffffffffffffffffffffffff163373ffffffffffffffffffffffffffffffffffffffff161461017f57600080fd5b60006001600360009054906101000a900460ff1661019d9190610a43565b9050600060405180606001604052808360ff1681526020018481526020016000815250905080600260008460ff1660ff16815260200190815260200160002060008201518160000160006101000a81548160ff021916908360ff160217905550602082015181600101908051906020019061021992919061059e565b50604082015181600201559050506001600360009054906101000a900460ff166102439190610a43565b600360006101000a81548160ff021916908360ff160217905550505050565b60026020528060005260406000206000915090508060000160009054906101000a900460ff169080600101805461029890610aa9565b80601f01602080910402602001604051908101604052809291908181526020018280546102c490610aa9565b80156103115780601f106102e657610100808354040283529160200191610311565b820191906000526020600020905b8154815290600101906020018083116102f457829003601f168201915b5050505050908060020154905083565b60016020528060005260406000206000915054906101000a900460ff1681565b60001515600160003373ffffffffffffffffffffffffffffffffffffffff1673ffffffffffffffffffffffffffffffffffffffff16815260200190815260200160002060009054906101000a900460ff1615151461039e57600080fd5b6000600260008360ff1660ff1681526020019081526020016000206040518060600160405290816000820160009054906101000a900460ff1660ff1660ff1681526020016001820180546103f190610aa9565b80601f016020809104026020016040519081016040528092919081815260200182805461041d90610aa9565b801561046a5780601f1061043f5761010080835404028352916020019161046a565b820191906000526020600020905b81548152906001019060200180831161044d57829003601f168201915b5050505050815260200160028201548152505090506000816000015160ff16141561049457600080fd5b600181604001516104a59190610adb565b81604001818152505080600260008460ff1660ff16815260200190815260200160002060008201518160000160006101000a81548160ff021916908360ff160217905550602082015181600101908051906020019061050592919061059e565b506040820151816002015590505060018060003373ffffffffffffffffffffffffffffffffffffffff1673ffffffffffffffffffffffffffffffffffffffff16815260200190815260200160002060006101000a81548160ff0219169083151502179055508160ff167f299531cb58f85d08a44ed9485a55a7326c4383ec19cddcff4ff126cf2779600e60405160405180910390a25050565b8280546105aa90610aa9565b90600052602060002090601f0160209004810192826105cc5760008555610613565b82601f106105e557805160ff1916838001178555610613565b82800160010185558215610613579182015b828111156106125782518255916020019190600101906105f7565b5b5090506106209190610624565b5090565b5b8082111561063d576000816000905550600101610625565b5090565b600060ff82169050919050565b61065781610641565b82525050565b6000602082019050610672600083018461064e565b92915050565b6000604051905090565b600080fd5b600080fd5b600080fd5b600080fd5b6000601f19601f8301169050919050565b7f4e487b7100000000000000000000000000000000000000000000000000000000600052604160045260246000fd5b6106df82610696565b810181811067ffffffffffffffff821117156106fe576106fd6106a7565b5b80604052505050565b6000610711610678565b905061071d82826106d6565b919050565b600067ffffffffffffffff82111561073d5761073c6106a7565b5b61074682610696565b9050602081019050919050565b82818337600083830152505050565b600061077561077084610722565b610707565b90508281526020810184848401111561079157610790610691565b5b61079c848285610753565b509392505050565b600082601f8301126107b9576107b861068c565b5b81356107c9848260208601610762565b91505092915050565b6000602082840312156107e8576107e7610682565b5b600082013567ffffffffffffffff81111561080657610805610687565b5b610812848285016107a4565b91505092915050565b61082481610641565b811461082f57600080fd5b50565b6000813590506108418161081b565b92915050565b60006020828403121561085d5761085c610682565b5b600061086b84828501610832565b91505092915050565b600081519050919050565b600082825260208201905092915050565b60005b838110156108ae578082015181840152602081019050610893565b838111156108bd576000848401525b50505050565b60006108ce82610874565b6108d8818561087f565b93506108e8818560208601610890565b6108f181610696565b840191505092915050565b6000819050919050565b61090f816108fc565b82525050565b600060608201905061092a600083018661064e565b818103602083015261093c81856108c3565b905061094b6040830184610906565b949350505050565b600073ffffffffffffffffffffffffffffffffffffffff82169050919050565b600061097e82610953565b9050919050565b61098e81610973565b811461099957600080fd5b50565b6000813590506109ab81610985565b92915050565b6000602082840312156109c7576109c6610682565b5b60006109d58482850161099c565b91505092915050565b60008115159050919050565b6109f3816109de565b82525050565b6000602082019050610a0e60008301846109ea565b92915050565b7f4e487b7100000000000000000000000000000000000000000000000000000000600052601160045260246000fd5b6000610a4e82610641565b9150610a5983610641565b92508260ff03821115610a6f57610a6e610a14565b5b828201905092915050565b7f4e487b7100000000000000000000000000000000000000000000000000000000600052602260045260246000fd5b60006002820490506001821680610ac157607f821691505b60208210811415610ad557610ad4610a7a565b5b50919050565b6000610ae6826108fc565b9150610af1836108fc565b9250827fffffffffffffffffffffffffffffffffffffffffffffffffffffffffffffffff03821115610b2657610b25610a14565b5b82820190509291505056fea264697066735822122061e8d25fa6923f7866315ad89438d487565f4553d30d7c27bea4d04bdb9fcfc564736f6c634300080a0033",
  "linkReferences": {},
  "deployedLinkReferences": {}
}