{
  "_format": "hh-sol-artifact-1",
  "contractName": "BooleanOperators",
  "sourceName": "contracts/ValueType.sol",
  "abi": [
    {
      "inputs": [
        {
          "internalType": "bool",
          "name": "op1",
          "type": "bool"
        },
        {
          "internalType": "bool",
          "name": "op2",
          "type": "bool"
        }
      ],
      "name": "isEqualOperation",
      "outputs": [
        {
          "internalType": "bool",
          "name": "",
          "type": "bool"
        }
      ],
      "stateMutability": "pure",
      "type": "function"
    },
    {
      "inputs": [
        {
          "internalType": "bool",
          "name": "op1",
          "type": "bool"
        },
        {
          "internalType": "bool",
          "name": "op2",
          "type": "bool"
        }
      ],
      "name": "isNotEqualOperation",
      "outputs": [
        {
          "internalType": "bool",
          "name": "",
          "type": "bool"
        }
      ],
      "stateMutability": "pure",
      "type": "function"
    },
    {
      "inputs": [
        {
          "internalType": "bool",
          "name": "op1",
          "type": "bool"
        },
        {
          "internalType": "bool",
          "name": "op2",
          "type": "bool"
        }
      ],
      "name": "logicalAndOperation",
      "outputs": [
        {
          "internalType": "bool",
          "name": "",
          "type": "bool"
        }
      ],
      "stateMutability": "pure",
      "type": "function"
    },
    {
      "inputs": [
        {
          "internalType": "bool",
          "name": "op1",
          "type": "bool"
        },
        {
          "internalType": "bool",
          "name": "op2",
          "type": "bool"
        }
      ],
      "name": "logicalOrOperation",
      "outputs": [
        {
          "internalType": "bool",
          "name": "",
          "type": "bool"
        }
      ],
      "stateMutability": "pure",
      "type": "function"
    },
    {
      "inputs": [
        {
          "internalType": "bool",
          "name": "op1",
          "type": "bool"
        }
      ],
      "name": "notOperation",
      "outputs": [
        {
          "internalType": "bool",
          "name": "",
          "type": "bool"
        }
      ],
      "stateMutability": "pure",
      "type": "function"
    }
  ],
  "bytecode": "0x608060405234801561001057600080fd5b506102ab806100206000396000f3fe608060405234801561001057600080fd5b50600436106100575760003560e01c80630f0468921461005c578063531d73221461008c578063a636da8a146100bc578063b6edc240146100ec578063b99fcb331461011c575b600080fd5b610076600480360381019061007191906101de565b61014c565b604051610083919061022d565b60405180910390f35b6100a660048036038101906100a191906101de565b61015f565b6040516100b3919061022d565b60405180910390f35b6100d660048036038101906100d19190610248565b610170565b6040516100e3919061022d565b60405180910390f35b610106600480360381019061010191906101de565b61017b565b604051610113919061022d565b60405180910390f35b610136600480360381019061013191906101de565b61018d565b604051610143919061022d565b60405180910390f35b600082806101575750815b905092915050565b600081151583151514905092915050565b600081159050919050565b60008115158315151415905092915050565b60008280156101995750815b905092915050565b600080fd5b60008115159050919050565b6101bb816101a6565b81146101c657600080fd5b50565b6000813590506101d8816101b2565b92915050565b600080604083850312156101f5576101f46101a1565b5b6000610203858286016101c9565b9250506020610214858286016101c9565b9150509250929050565b610227816101a6565b82525050565b6000602082019050610242600083018461021e565b92915050565b60006020828403121561025e5761025d6101a1565b5b600061026c848285016101c9565b9150509291505056fea2646970667358221220db19bf1225246534dc1fae9782b327794acae3363e4e8d4c9cc7721d1805b86f64736f6c634300080a0033",
  "linkReferences": {},
  "deployedLinkReferences": {}
}