{
  "_format": "hh-sol-artifact-1",
  "contractName": "ValueType",
  "sourceName": "contracts/ValueType.sol",
  "abi": [
    {
      "inputs": [],
      "name": "boolean",
      "outputs": [
        {
          "internalType": "bool",
          "name": "",
          "type": "bool"
        }
      ],
      "stateMutability": "view",
      "type": "function"
    },
    {
      "inputs": [],
      "name": "integer",
      "outputs": [
        {
          "internalType": "int256",
          "name": "",
          "type": "int256"
        }
      ],
      "stateMutability": "view",
      "type": "function"
    },
    {
      "inputs": [
        {
          "internalType": "bool",
          "name": "op1",
          "type": "bool"
        },
        {
          "internalType": "bool",
          "name": "op2",
          "type": "bool"
        }
      ],
      "name": "isEqualOperation",
      "outputs": [
        {
          "internalType": "bool",
          "name": "",
          "type": "bool"
        }
      ],
      "stateMutability": "pure",
      "type": "function"
    },
    {
      "inputs": [
        {
          "internalType": "bool",
          "name": "op1",
          "type": "bool"
        },
        {
          "internalType": "bool",
          "name": "op2",
          "type": "bool"
        }
      ],
      "name": "isNotEqualOperation",
      "outputs": [
        {
          "internalType": "bool",
          "name": "",
          "type": "bool"
        }
      ],
      "stateMutability": "pure",
      "type": "function"
    },
    {
      "inputs": [
        {
          "internalType": "bool",
          "name": "op1",
          "type": "bool"
        },
        {
          "internalType": "bool",
          "name": "op2",
          "type": "bool"
        }
      ],
      "name": "logicalAndOperation",
      "outputs": [
        {
          "internalType": "bool",
          "name": "",
          "type": "bool"
        }
      ],
      "stateMutability": "pure",
      "type": "function"
    },
    {
      "inputs": [
        {
          "internalType": "bool",
          "name": "op1",
          "type": "bool"
        },
        {
          "internalType": "bool",
          "name": "op2",
          "type": "bool"
        }
      ],
      "name": "logicalOrOperation",
      "outputs": [
        {
          "internalType": "bool",
          "name": "",
          "type": "bool"
        }
      ],
      "stateMutability": "pure",
      "type": "function"
    },
    {
      "inputs": [
        {
          "internalType": "bool",
          "name": "op1",
          "type": "bool"
        }
      ],
      "name": "notOperation",
      "outputs": [
        {
          "internalType": "bool",
          "name": "",
          "type": "bool"
        }
      ],
      "stateMutability": "pure",
      "type": "function"
    },
    {
      "inputs": [],
      "name": "postiveInteger",
      "outputs": [
        {
          "internalType": "uint256",
          "name": "",
          "type": "uint256"
        }
      ],
      "stateMutability": "view",
      "type": "function"
    }
  ],
  "bytecode": "0x608060405234801561001057600080fd5b506103bd806100206000396000f3fe608060405234801561001057600080fd5b50600436106100885760003560e01c8063a636da8a1161005b578063a636da8a14610129578063b6edc24014610159578063b99fcb3314610189578063c5b57bdb146101b957610088565b806309efb8ff1461008d5780630f046892146100ab578063531d7322146100db5780636a22d9cd1461010b575b600080fd5b6100956101d7565b6040516100a29190610264565b60405180910390f35b6100c560048036038101906100c091906102bc565b6101dd565b6040516100d2919061030b565b60405180910390f35b6100f560048036038101906100f091906102bc565b6101f0565b604051610102919061030b565b60405180910390f35b610113610201565b604051610120919061033f565b60405180910390f35b610143600480360381019061013e919061035a565b610207565b604051610150919061030b565b60405180910390f35b610173600480360381019061016e91906102bc565b610212565b604051610180919061030b565b60405180910390f35b6101a3600480360381019061019e91906102bc565b610224565b6040516101b0919061030b565b60405180910390f35b6101c1610238565b6040516101ce919061030b565b60405180910390f35b60005481565b600082806101e85750815b905092915050565b600081151583151514905092915050565b60015481565b600081159050919050565b60008115158315151415905092915050565b60008280156102305750815b905092915050565b600260009054906101000a900460ff1681565b6000819050919050565b61025e8161024b565b82525050565b60006020820190506102796000830184610255565b92915050565b600080fd5b60008115159050919050565b61029981610284565b81146102a457600080fd5b50565b6000813590506102b681610290565b92915050565b600080604083850312156102d3576102d261027f565b5b60006102e1858286016102a7565b92505060206102f2858286016102a7565b9150509250929050565b61030581610284565b82525050565b600060208201905061032060008301846102fc565b92915050565b6000819050919050565b61033981610326565b82525050565b60006020820190506103546000830184610330565b92915050565b6000602082840312156103705761036f61027f565b5b600061037e848285016102a7565b9150509291505056fea26469706673582212208413d26ab455b9390a43c917085944a526bc44bdec7bf14265928279d5b8295764736f6c634300080a0033",
  "linkReferences": {},
  "deployedLinkReferences": {}
}